:020000040000FA
:060000000A128A110E280D
:10000800FE00030EF8000408F9000A08FA000A12B4
:100018008A1127280A128A1111280A128A11DD2248
:100028000A128A11BD0083132030840031300A126D
:100038008A11D5220A128A11FB01FC01FD018301F4
:100048000A128A1143290B1C2A282B283D288312BF
:10005800031306183028312836280130F4007408B4
:1000680088073C28861839283A283C280130880215
:100078000B100B1D4028412848280130F400740853
:1000880083120313A8070B11831203138C1E4D2828
:100098004E2806290D301A06031D532854285628C1
:1000A8002C0888000D301A0603195B285C280629DD
:1000B8001A08F4007408AD008E28FC01B628FC016B
:1000C800FC0AB6280230F4007408FC00B628033095
:1000D800F4007408FC00B6280430F4007408FC002E
:1000E800B6280530F4007408FC00B6280630F40081
:1000F8007408FC00B6280730F4007408FC00B62821
:100108000830F4007408FC00B6280930F4007408BC
:10011800FC00B6282D08F400F5017508003A03190B
:100128009628B6287408303A03196128013A031949
:100138006328033A03196628013A03196B28073A1A
:1001480003197028013A03197528033A03197A2804
:10015800013A03197F280F3A03198428013A031931
:100168008928B6283D03031DBA28BB28C7287C0860
:10017800F4007408AC007C08F4007408FB00BD01AE
:10018800A501A50A06292503031DCB28CC28E428A8
:100198000A30F4007408F0007B080A128A11C022A1
:1001A8000A128A117C07F500750883120313AC0044
:1001B8007C08F4007408A300A501A401A40A062978
:1001C8002403031DE828E92806290A30F4007408E6
:1001D800F00023080A128A11C0220A128A11F500B7
:1001E8006430F6007608F0007B080A128A11C022F3
:1001F8000A128A1175077C07F70077088312031320
:10020800AC00E0280C1E09290A293A297D08031D9B
:100218000E290F2915292908303E9900FD01FD0AEC
:100228003A297D03031D19291A2922292A08303E53
:1002380099000230F4007408FD003A2902307D0666
:10024800031D2729282930292B08303E990003301F
:10025800F4007408FD003A2903307D06031D352992
:1002680036293A290D309900FD013A297A088A0081
:1002780079088400780E8300FE0E7E0E09000A12AB
:100288008A1175220A128A11103083120313280268
:10029800031C4F2950295429A801831603130C164F
:1002A80064308312B1000030B2000808BA00BB0104
:1002B8003A08B3003B08B4000A128A11B1210A12A5
:1002C8008A11831203133108BC003C08A90064306A
:1002D800B1000030B2000808BA00BB013A08B30008
:1002E8003B08B4000A128A111A220A128A118312D0
:1002F80003133108BC003C08A7000A30B1000030E5
:10030800B2002708BA00BB013A08B3003B08B400A2
:100318000A128A11B1210A128A11831203133108B1
:10032800BC003C08AA000A30B1000030B20008083E
:10033800BA00BB013A08B3003B08B4000A128A119C
:100348001A220A128A11831203133108BC003C08CE
:10035800AB0048290A128A110E2883120313B70129
:10036800B21FB729B829BF29B109B209B10A0319BF
:10037800B20AB701B70AB41FC229C329CC29B309E5
:10038800B409B30A0319B40A0130B5003508B70631
:10039800B801B901310832040319D329D4290B2A29
:1003A800B601B60AE22901300310B10DB20DFF3EC5
:1003B800031DD8290130B5003508B607B21FE52955
:1003C800E629D72901300310B80DB90DFF3E031DEA
:1003D800E72932083402031DF32931083302031CCC
:1003E800F629F729FE293108B3023208031CB403A1
:1003F800B402381401300310B20CB10CFF3E031DD7
:10040800FF290130B602031D0A2A0B2AE6293708FC
:1004180003190F2A102A152AB809B909B80A0319A5
:10042800B90A3908B2003808B1000800831203136A
:10043800B701B41F202A212A282AB309B409B30A0C
:100448000319B40AB701B70AB21F2B2A2C2A312A7A
:10045800B109B209B10A0319B20A31083204031901
:10046800362A372A662AB601B60A452A0130031009
:10047800B10DB20DFF3E031D3B2A0130B500350812
:10048800B607B21F482A492A3A2A32083402031DFD
:100498004F2A31083302031C522A532A592A310899
:1004A800B3023208031CB403B40201300310B20CC7
:1004B800B10CFF3E031D5A2A0130B602031D652AFE
:1004C800662A492A370803196A2A6B2A702AB30947
:1004D800B409B30A0319B40A3408B2003308B100E6
:1004E8000800831603130F178F160F160F14033007
:1004F80083160317880089018316031385010330C7
:100508008600880181130330950083120313850147
:100518000330860088018B178B160B118B1503305F
:100528008316031396000B10811281110730810482
:100538000A308312031381008B160B110A128A11D9
:10054800A8220A128A1108008316031307138717B3
:1005580018121815831603178715CF30831603133F
:1005680099009A0183120313981718131816831603
:10057800031398160B170800F300F201731CC52A21
:10058800C62ACA2A7008F1007108F2070310F00D94
:100598000310F30C7308031DD22AD32AC22A720847
:1005A800080064008001840A040603190034040664
:0405B800D62A01340A
:04400E00D420FF3F7C
:00000001FF
