:020000040000FA
:060000000A128A110E280D
:10000800FE00030EF8000408F9000A08FA000A12B4
:100018008A112C280A128A1111280A128A11DD2243
:100028000A128A11BA00A001A101A201A301A40128
:10003800A501A601A701A801A901AA01AB01AC016C
:10004800AD01FB01FC01FD0183010A128A114B2954
:100058000B1C2F2830284228831203130618352832
:1000680036283B280130F400740885074128861893
:100078003E283F284128013085020B100B1D4528DA
:1000880046284D280130F400740883120313A5078D
:100098000B11831203138C1E522853280D290D307F
:1000A8001A06031D582859285D2829088800023097
:1000B80089000D301A060319622863280D291A08C9
:1000C800F4007408AA009528FC01BD28FC01FC0A6C
:1000D800BD280230F4007408FC00BD280330F40089
:1000E8007408FC00BD280430F4007408FC00BD2826
:1000F8000530F4007408FC00BD280630F4007408CC
:10010800FC00BD280730F4007408FC00BD28083046
:10011800F4007408FC00BD280930F4007408FC00E1
:10012800BD282A08F400F5017508003A03199D282E
:10013800BD287408303A03196828013A03196A2857
:10014800033A03196D28013A03197228073A03196B
:100158007728013A03197C28033A03198128013AC0
:10016800031986280F3A03198B28013A0319902896
:10017800BD283A03031DC128C228CE287C08F400F4
:100188007408A9007C08F4007408FB00BA01A201F5
:10019800A20A0D292203031DD228D328EB280A30EE
:1001A800F4007408F0007B080A128A11C8220A12A7
:1001B8008A117C07F500750883120313A9007C08CF
:1001C800F4007408A000A201A101A10A0D292103CD
:1001D800031DEF28F0280D290A30F4007408F000F8
:1001E80020080A128A11C8220A128A11F5006430FE
:1001F800F6007608F0007B080A128A11C8220A1253
:100208008A1175077C07F700770883120313A90082
:10021800E7280C1E1029112942297D08031D1529DC
:1002280016291C292608303E9900FD01FD0A41299E
:100238007D03031D2029212929292708303E9900FB
:100248000230F4007408FD00412902307D06031DC8
:100258002E292F2937292808303E99000330F40029
:100268007408FD00412903307D06031D3C293D2902
:1002780041290D309900FD0141290C127A088A00A4
:1002880079088400780E8300FE0E7E0E09000A129B
:100298008A1188220A128A11103083120313250248
:1002A800031C572958295C29A501831603130C162A
:1002B80064308312AE000030AF000508B700B80103
:1002C8003708B0003808B1000A128A11C4210A128E
:1002D8008A11831203132E08B9003908A600643066
:1002E800AE000030AF000508B700B8013708B0000D
:1002F8003808B1000A128A112D220A128A118312B3
:1003080003132E08B9003908A4000A30AE000030E3
:10031800AF002408B700B8013708B0003808B100AA
:100328000A128A11C4210A128A11831203132E0891
:10033800B9003908A7000A30AE000030AF00050840
:10034800B700B8013708B0003808B1000A128A119E
:100358002D220A128A11831203132E08B9003908B4
:10036800A800891CB829B9295029FC01A9018901CB
:10037800BA01BA0AA201A10150290A128A110E284B
:1003880083120313B401AF1FCA29CB29D229AE099E
:10039800AF09AE0A0319AF0AB401B40AB11FD529CF
:1003A800D629DF29B009B109B00A0319B10A013009
:1003B800B2003208B406B501B6012E082F0403199D
:1003C800E629E7291E2AB301B30AF52901300310EB
:1003D800AE0DAF0DFF3E031DEB290130B200320810
:1003E800B307AF1FF829F929EA2901300310B50D21
:1003F800B60DFF3E031DFA292F083102031D062AF8
:100408002E083002031C092A0A2A112A2E08B002D3
:100418002F08031CB103B102351401300310AF0CCF
:10042800AE0CFF3E031D122A0130B302031D1D2A24
:100438001E2AF92934080319222A232A282AB50949
:10044800B609B50A0319B60A3608AF003508AE0072
:10045800080083120313B401B11F332A342A3B2A3C
:10046800B009B109B00A0319B10AB401B40AAF1F3F
:100478003E2A3F2A442AAE09AF09AE0A0319AF0A39
:100488002E082F040319492A4A2A792AB301B30AE4
:10049800582A01300310AE0DAF0DFF3E031D4E2A42
:1004A8000130B2003208B307AF1F5B2A5C2A4D2A1D
:1004B8002F083102031D622A2E083002031C652A08
:1004C800662A6C2A2E08B0022F08031CB103B10259
:1004D80001300310AF0CAE0CFF3E031D6D2A013036
:1004E800B302031D782A792A5C2A340803197D2A65
:1004F8007E2A832AB009B109B00A0319B10A310862
:10050800AF003008AE000800831603130F178F16CC
:100518000F160F1483160317880189018316031316
:100528008501033086008801890181130330950015
:1005380083120313850103308600880189018B1714
:100548008B160B118316031318121815831603172D
:100558008715CF308316031399009A01831203136A
:100568009817181318168316031398168B150B1063
:10057800033096000B1081128111073081040A3074
:100588008312031381000800F300F201731CCD2AC3
:10059800CE2AD22A7008F1007108F2070310F00D74
:1005A8000310F30C7308031DDA2ADB2ACA2A72081F
:0405B8000800013402
:04400E00C420FF3F8C
:00000001FF
